{
  "_format": "hh-sol-artifact-1",
  "contractName": "Market",
  "sourceName": "contracts/Market.sol",
  "abi": [
    {
      "inputs": [
        {
          "internalType": "address",
          "name": "_outbox",
          "type": "address"
        }
      ],
      "stateMutability": "nonpayable",
      "type": "constructor"
    },
    {
      "inputs": [
        {
          "internalType": "uint256",
          "name": "_0utputId",
          "type": "uint256"
        }
      ],
      "name": "closeMarket",
      "outputs": [
        {
          "internalType": "bool",
          "name": "",
          "type": "bool"
        }
      ],
      "stateMutability": "nonpayable",
      "type": "function"
    },
    {
      "inputs": [],
      "name": "exitLocked",
      "outputs": [
        {
          "internalType": "bool",
          "name": "",
          "type": "bool"
        }
      ],
      "stateMutability": "view",
      "type": "function"
    },
    {
      "inputs": [
        {
          "internalType": "uint256",
          "name": "_exitId",
          "type": "uint256"
        }
      ],
      "name": "lockExit",
      "outputs": [
        {
          "internalType": "bool",
          "name": "",
          "type": "bool"
        }
      ],
      "stateMutability": "nonpayable",
      "type": "function"
    },
    {
      "inputs": [
        {
          "internalType": "bytes32[]",
          "name": "_proof",
          "type": "bytes32[]"
        },
        {
          "internalType": "uint256",
          "name": "_index",
          "type": "uint256"
        },
        {
          "internalType": "address",
          "name": "_l2Sender",
          "type": "address"
        },
        {
          "internalType": "address",
          "name": "_to",
          "type": "address"
        },
        {
          "internalType": "uint256",
          "name": "_l2Block",
          "type": "uint256"
        },
        {
          "internalType": "uint256",
          "name": "_l1Block",
          "type": "uint256"
        },
        {
          "internalType": "uint256",
          "name": "_l2Timestamp",
          "type": "uint256"
        },
        {
          "internalType": "uint256",
          "name": "_value",
          "type": "uint256"
        },
        {
          "internalType": "bytes",
          "name": "_data",
          "type": "bytes"
        },
        {
          "internalType": "uint256",
          "name": "_askPrice",
          "type": "uint256"
        }
      ],
      "name": "openMarket",
      "outputs": [
        {
          "internalType": "bool",
          "name": "",
          "type": "bool"
        }
      ],
      "stateMutability": "nonpayable",
      "type": "function"
    },
    {
      "inputs": [],
      "name": "outbox",
      "outputs": [
        {
          "internalType": "contract IOutbox",
          "name": "",
          "type": "address"
        }
      ],
      "stateMutability": "view",
      "type": "function"
    },
    {
      "inputs": [],
      "name": "submitBid",
      "outputs": [
        {
          "internalType": "bool",
          "name": "",
          "type": "bool"
        }
      ],
      "stateMutability": "payable",
      "type": "function"
    },
    {
      "inputs": [
        {
          "internalType": "address",
          "name": "",
          "type": "address"
        }
      ],
      "name": "totalEtherBalance",
      "outputs": [
        {
          "internalType": "uint256",
          "name": "",
          "type": "uint256"
        }
      ],
      "stateMutability": "view",
      "type": "function"
    }
  ],
  "bytecode": "0x60806040523480156200001157600080fd5b506040516200181c3803806200181c8339818101604052810190620000379190620000e7565b806000806101000a81548173ffffffffffffffffffffffffffffffffffffffff021916908373ffffffffffffffffffffffffffffffffffffffff1602179055506001600260016101000a81548160ff02191690836001811115620000c4577f4e487b7100000000000000000000000000000000000000000000000000000000600052602160045260246000fd5b02179055505062000161565b600081519050620000e18162000147565b92915050565b600060208284031215620000fa57600080fd5b60006200010a84828501620000d0565b91505092915050565b6000620001208262000127565b9050919050565b600073ffffffffffffffffffffffffffffffffffffffff82169050919050565b620001528162000113565b81146200015e57600080fd5b50565b6116ab80620001716000396000f3fe6080604052600436106100705760003560e01c8063ae4180951161004e578063ae4180951461011a578063c19dcd7b14610157578063c334b6b214610194578063ce11e6ab146101b257610070565b8063578605291461007557806379066a92146100b25780639621dc16146100dd575b600080fd5b34801561008157600080fd5b5061009c60048036038101906100979190610f95565b6101dd565b6040516100a991906112de565b60405180910390f35b3480156100be57600080fd5b506100c76104ff565b6040516100d491906112de565b60405180910390f35b3480156100e957600080fd5b5061010460048036038101906100ff9190610f43565b610512565b6040516101119190611334565b60405180910390f35b34801561012657600080fd5b50610141600480360381019061013c91906110a0565b61052a565b60405161014e91906112de565b60405180910390f35b34801561016357600080fd5b5061017e600480360381019061017991906110a0565b61060f565b60405161018b91906112de565b60405180910390f35b61019c61074b565b6040516101a991906112de565b60405180910390f35b3480156101be57600080fd5b506101c7610cc0565b6040516101d491906112f9565b60405180910390f35b6000600180600181111561021a577f4e487b7100000000000000000000000000000000000000000000000000000000600052602160045260246000fd5b600260019054906101000a900460ff166001811115610262577f4e487b7100000000000000000000000000000000000000000000000000000000600052602160045260246000fd5b1461026c57600080fd5b60011515600260009054906101000a900460ff1615151461028c57600080fd5b6000600260016101000a81548160ff021916908360018111156102d8577f4e487b7100000000000000000000000000000000000000000000000000000000600052602160045260246000fd5b021790555060006040518061016001604052803373ffffffffffffffffffffffffffffffffffffffff1681526020018e81526020018d81526020018c73ffffffffffffffffffffffffffffffffffffffff1681526020018b73ffffffffffffffffffffffffffffffffffffffff1681526020018a815260200189815260200188815260200187815260200186815260200185815250905060038190806001815401808255809150506001900390600052602060002090600b020160009091909190915060008201518160000160006101000a81548173ffffffffffffffffffffffffffffffffffffffff021916908373ffffffffffffffffffffffffffffffffffffffff16021790555060208201518160010190805190602001906103fe929190610ce4565b506040820151816002015560608201518160030160006101000a81548173ffffffffffffffffffffffffffffffffffffffff021916908373ffffffffffffffffffffffffffffffffffffffff16021790555060808201518160040160006101000a81548173ffffffffffffffffffffffffffffffffffffffff021916908373ffffffffffffffffffffffffffffffffffffffff16021790555060a0820151816005015560c0820151816006015560e0820151816007015561010082015181600801556101208201518160090190805190602001906104dd929190610d31565b5061014082015181600a015550506001925050509a9950505050505050505050565b600260009054906101000a900460ff1681565b60016020528060005260406000206000915090505481565b600080806001811115610566577f4e487b7100000000000000000000000000000000000000000000000000000000600052602160045260246000fd5b600260019054906101000a900460ff1660018111156105ae577f4e487b7100000000000000000000000000000000000000000000000000000000600052602160045260246000fd5b146105b857600080fd5b6001600260016101000a81548160ff02191690836001811115610604577f4e487b7100000000000000000000000000000000000000000000000000000000600052602160045260246000fd5b021790555050919050565b60003073ffffffffffffffffffffffffffffffffffffffff1660008054906101000a900473ffffffffffffffffffffffffffffffffffffffff1673ffffffffffffffffffffffffffffffffffffffff1663d74171d1846040518263ffffffff1660e01b81526004016106819190611334565b60206040518083038186803b15801561069957600080fd5b505afa1580156106ad573d6000803e3d6000fd5b505050506040513d601f19601f820116820180604052508101906106d19190610f6c565b73ffffffffffffffffffffffffffffffffffffffff1614610727576040517f08c379a000000000000000000000000000000000000000000000000000000000815260040161071e90611314565b60405180910390fd5b6001600260006101000a81548160ff02191690831515021790555060019050919050565b600080806001811115610787577f4e487b7100000000000000000000000000000000000000000000000000000000600052602160045260246000fd5b600260019054906101000a900460ff1660018111156107cf577f4e487b7100000000000000000000000000000000000000000000000000000000600052602160045260246000fd5b146107d957600080fd5b6003600081548110610814577f4e487b7100000000000000000000000000000000000000000000000000000000600052603260045260246000fd5b90600052602060002090600b0201600a01543410610cb85760008054906101000a900473ffffffffffffffffffffffffffffffffffffffff1673ffffffffffffffffffffffffffffffffffffffff166372385bc760036000815481106108a3577f4e487b7100000000000000000000000000000000000000000000000000000000600052603260045260246000fd5b90600052602060002090600b020160010160036000815481106108ef577f4e487b7100000000000000000000000000000000000000000000000000000000600052603260045260246000fd5b90600052602060002090600b020160020154600360008154811061093c577f4e487b7100000000000000000000000000000000000000000000000000000000600052603260045260246000fd5b90600052602060002090600b020160030160009054906101000a900473ffffffffffffffffffffffffffffffffffffffff1660036000815481106109a9577f4e487b7100000000000000000000000000000000000000000000000000000000600052603260045260246000fd5b90600052602060002090600b020160040160009054906101000a900473ffffffffffffffffffffffffffffffffffffffff166003600081548110610a16577f4e487b7100000000000000000000000000000000000000000000000000000000600052603260045260246000fd5b90600052602060002090600b0201600501546003600081548110610a63577f4e487b7100000000000000000000000000000000000000000000000000000000600052603260045260246000fd5b90600052602060002090600b0201600601546003600081548110610ab0577f4e487b7100000000000000000000000000000000000000000000000000000000600052603260045260246000fd5b90600052602060002090600b0201600701546003600081548110610afd577f4e487b7100000000000000000000000000000000000000000000000000000000600052603260045260246000fd5b90600052602060002090600b0201600801546003600081548110610b4a577f4e487b7100000000000000000000000000000000000000000000000000000000600052603260045260246000fd5b90600052602060002090600b0201600901336040518b63ffffffff1660e01b8152600401610b819a99989796959493929190611234565b600060405180830381600087803b158015610b9b57600080fd5b505af1158015610baf573d6000803e3d6000fd5b505050506003600081548110610bee577f4e487b7100000000000000000000000000000000000000000000000000000000600052603260045260246000fd5b90600052602060002090600b020160000160009054906101000a900473ffffffffffffffffffffffffffffffffffffffff1673ffffffffffffffffffffffffffffffffffffffff166108fc349081150290604051600060405180830381858888f19350505050158015610c65573d6000803e3d6000fd5b506001600260016101000a81548160ff02191690836001811115610cb2577f4e487b7100000000000000000000000000000000000000000000000000000000600052602160045260246000fd5b02179055505b600191505090565b60008054906101000a900473ffffffffffffffffffffffffffffffffffffffff1681565b828054828255906000526020600020908101928215610d20579160200282015b82811115610d1f578251825591602001919060010190610d04565b5b509050610d2d9190610db7565b5090565b828054610d3d906114d5565b90600052602060002090601f016020900481019282610d5f5760008555610da6565b82601f10610d7857805160ff1916838001178555610da6565b82800160010185558215610da6579182015b82811115610da5578251825591602001919060010190610d8a565b5b509050610db39190610dd4565b5090565b5b80821115610dd0576000816000905550600101610db8565b5090565b5b80821115610ded576000816000905550600101610dd5565b5090565b6000610e04610dff84611374565b61134f565b90508083825260208201905082856020860282011115610e2357600080fd5b60005b85811015610e535781610e398882610eef565b845260208401935060208301925050600181019050610e26565b5050509392505050565b6000610e70610e6b846113a0565b61134f565b905082815260208101848484011115610e8857600080fd5b610e938482856114c6565b509392505050565b600081359050610eaa81611630565b92915050565b600081519050610ebf81611630565b92915050565b600082601f830112610ed657600080fd5b8135610ee6848260208601610df1565b91505092915050565b600081359050610efe81611647565b92915050565b600082601f830112610f1557600080fd5b8135610f25848260208601610e5d565b91505092915050565b600081359050610f3d8161165e565b92915050565b600060208284031215610f5557600080fd5b6000610f6384828501610e9b565b91505092915050565b600060208284031215610f7e57600080fd5b6000610f8c84828501610eb0565b91505092915050565b6000806000806000806000806000806101408b8d031215610fb557600080fd5b60008b013567ffffffffffffffff811115610fcf57600080fd5b610fdb8d828e01610ec5565b9a50506020610fec8d828e01610f2e565b9950506040610ffd8d828e01610e9b565b985050606061100e8d828e01610e9b565b975050608061101f8d828e01610f2e565b96505060a06110308d828e01610f2e565b95505060c06110418d828e01610f2e565b94505060e06110528d828e01610f2e565b9350506101008b013567ffffffffffffffff81111561107057600080fd5b61107c8d828e01610f04565b92505061012061108e8d828e01610f2e565b9150509295989b9194979a5092959850565b6000602082840312156110b257600080fd5b60006110c084828501610f2e565b91505092915050565b60006110d58383611164565b60208301905092915050565b6110ea81611450565b82525050565b60006110fb826113fb565b6111058185611413565b9350611110836113d1565b8060005b8381101561114857611125826115b0565b61112f88826110c9565b975061113a83611406565b925050600181019050611114565b5085935050505092915050565b61115e81611462565b82525050565b61116d8161146e565b82525050565b60008154611180816114d5565b61118a8186611424565b945060018216600081146111a557600181146111b7576111ea565b60ff19831686526020860193506111ea565b6111c0856113e6565b60005b838110156111e2578154818901526001820191506020810190506111c3565b808801955050505b50505092915050565b6111fc816114a2565b82525050565b600061120f603083611435565b915061121a826115e1565b604082019050919050565b61122e81611498565b82525050565b600061014082019050818103600083015261124f818d6110f0565b905061125e602083018c611225565b61126b604083018b6110e1565b611278606083018a6110e1565b6112856080830189611225565b61129260a0830188611225565b61129f60c0830187611225565b6112ac60e0830186611225565b8181036101008301526112bf8185611173565b90506112cf6101208301846110e1565b9b9a5050505050505050505050565b60006020820190506112f36000830184611155565b92915050565b600060208201905061130e60008301846111f3565b92915050565b6000602082019050818103600083015261132d81611202565b9050919050565b60006020820190506113496000830184611225565b92915050565b600061135961136a565b90506113658282611521565b919050565b6000604051905090565b600067ffffffffffffffff82111561138f5761138e611581565b5b602082029050602081019050919050565b600067ffffffffffffffff8211156113bb576113ba611581565b5b6113c4826115c3565b9050602081019050919050565b60008190508160005260206000209050919050565b60008190508160005260206000209050919050565b600081549050919050565b6000600182019050919050565b600082825260208201905092915050565b600082825260208201905092915050565b600082825260208201905092915050565b6000819050919050565b600061145b82611478565b9050919050565b60008115159050919050565b6000819050919050565b600073ffffffffffffffffffffffffffffffffffffffff82169050919050565b6000819050919050565b60006114ad826114b4565b9050919050565b60006114bf82611478565b9050919050565b82818337600083830152505050565b600060028204905060018216806114ed57607f821691505b6020821081141561150157611500611552565b5b50919050565b600061151a611515836115d4565b611446565b9050919050565b61152a826115c3565b810181811067ffffffffffffffff8211171561154957611548611581565b5b80604052505050565b7f4e487b7100000000000000000000000000000000000000000000000000000000600052602260045260246000fd5b7f4e487b7100000000000000000000000000000000000000000000000000000000600052604160045260246000fd5b60006115bc8254611507565b9050919050565b6000601f19601f8301169050919050565b60008160001c9050919050565b7f4578697420686173206e6f74206265656e207472616e7366657272656420746f60008201527f20746865204d61726b6574207965742100000000000000000000000000000000602082015250565b61163981611450565b811461164457600080fd5b50565b6116508161146e565b811461165b57600080fd5b50565b61166781611498565b811461167257600080fd5b5056fea2646970667358221220b2d272d1ae51b6d81609cdc934b36e2c0793e0255668d7759c374add6979e45364736f6c63430008040033",
  "linkReferences": {},
  "deployedLinkReferences": {}
}