{
  "_format": "hh-sol-artifact-1",
  "contractName": "Market",
  "sourceName": "contracts/Market.sol",
  "abi": [
    {
      "inputs": [
        {
          "internalType": "address",
          "name": "_outbox",
          "type": "address"
        }
      ],
      "stateMutability": "nonpayable",
      "type": "constructor"
    },
    {
      "inputs": [
        {
          "internalType": "uint256",
          "name": "_0utputId",
          "type": "uint256"
        }
      ],
      "name": "closeMarket",
      "outputs": [
        {
          "internalType": "bool",
          "name": "",
          "type": "bool"
        }
      ],
      "stateMutability": "nonpayable",
      "type": "function"
    },
    {
      "inputs": [],
      "name": "exitLocked",
      "outputs": [
        {
          "internalType": "bool",
          "name": "",
          "type": "bool"
        }
      ],
      "stateMutability": "view",
      "type": "function"
    },
    {
      "inputs": [
        {
          "internalType": "uint256",
          "name": "_exitId",
          "type": "uint256"
        }
      ],
      "name": "lockExit",
      "outputs": [
        {
          "internalType": "bool",
          "name": "",
          "type": "bool"
        }
      ],
      "stateMutability": "nonpayable",
      "type": "function"
    },
    {
      "inputs": [
        {
          "internalType": "bytes32[]",
          "name": "_proof",
          "type": "bytes32[]"
        },
        {
          "internalType": "uint256",
          "name": "_index",
          "type": "uint256"
        },
        {
          "internalType": "address",
          "name": "_l2Sender",
          "type": "address"
        },
        {
          "internalType": "address",
          "name": "_to",
          "type": "address"
        },
        {
          "internalType": "uint256",
          "name": "_l2Block",
          "type": "uint256"
        },
        {
          "internalType": "uint256",
          "name": "_l1Block",
          "type": "uint256"
        },
        {
          "internalType": "uint256",
          "name": "_l2Timestamp",
          "type": "uint256"
        },
        {
          "internalType": "uint256",
          "name": "_value",
          "type": "uint256"
        },
        {
          "internalType": "bytes",
          "name": "_data",
          "type": "bytes"
        },
        {
          "internalType": "uint256",
          "name": "_askPrice",
          "type": "uint256"
        }
      ],
      "name": "openMarket",
      "outputs": [
        {
          "internalType": "bool",
          "name": "",
          "type": "bool"
        }
      ],
      "stateMutability": "nonpayable",
      "type": "function"
    },
    {
      "inputs": [],
      "name": "outbox",
      "outputs": [
        {
          "internalType": "contract IOutbox",
          "name": "",
          "type": "address"
        }
      ],
      "stateMutability": "view",
      "type": "function"
    },
    {
      "inputs": [],
      "name": "submitBid",
      "outputs": [
        {
          "internalType": "bool",
          "name": "",
          "type": "bool"
        }
      ],
      "stateMutability": "payable",
      "type": "function"
    },
    {
      "inputs": [
        {
          "internalType": "address",
          "name": "",
          "type": "address"
        }
      ],
      "name": "totalEtherBalance",
      "outputs": [
        {
          "internalType": "uint256",
          "name": "",
          "type": "uint256"
        }
      ],
      "stateMutability": "view",
      "type": "function"
    }
  ],
  "bytecode": "0x60806040523480156200001157600080fd5b50604051620014e0380380620014e08339818101604052810190620000379190620000e7565b806000806101000a81548173ffffffffffffffffffffffffffffffffffffffff021916908373ffffffffffffffffffffffffffffffffffffffff1602179055506001600260016101000a81548160ff02191690836001811115620000c4577f4e487b7100000000000000000000000000000000000000000000000000000000600052602160045260246000fd5b02179055505062000161565b600081519050620000e18162000147565b92915050565b600060208284031215620000fa57600080fd5b60006200010a84828501620000d0565b91505092915050565b6000620001208262000127565b9050919050565b600073ffffffffffffffffffffffffffffffffffffffff82169050919050565b620001528162000113565b81146200015e57600080fd5b50565b61136f80620001716000396000f3fe6080604052600436106100705760003560e01c8063ae4180951161004e578063ae4180951461011a578063c19dcd7b14610157578063c334b6b214610194578063ce11e6ab146101b257610070565b8063578605291461007557806379066a92146100b25780639621dc16146100dd575b600080fd5b34801561008157600080fd5b5061009c60048036038101906100979190610c59565b6101dd565b6040516100a99190610fa2565b60405180910390f35b3480156100be57600080fd5b506100c76104d1565b6040516100d49190610fa2565b60405180910390f35b3480156100e957600080fd5b5061010460048036038101906100ff9190610c07565b6104e4565b6040516101119190610ff8565b60405180910390f35b34801561012657600080fd5b50610141600480360381019061013c9190610d64565b6104fc565b60405161014e9190610fa2565b60405180910390f35b34801561016357600080fd5b5061017e60048036038101906101799190610d64565b6105e1565b60405161018b9190610fa2565b60405180910390f35b61019c61071d565b6040516101a99190610fa2565b60405180910390f35b3480156101be57600080fd5b506101c7610984565b6040516101d49190610fbd565b60405180910390f35b6000600180600181111561021a577f4e487b7100000000000000000000000000000000000000000000000000000000600052602160045260246000fd5b600260019054906101000a900460ff166001811115610262577f4e487b7100000000000000000000000000000000000000000000000000000000600052602160045260246000fd5b1461026c57600080fd5b60011515600260009054906101000a900460ff1615151461028c57600080fd5b6000600260016101000a81548160ff021916908360018111156102d8577f4e487b7100000000000000000000000000000000000000000000000000000000600052602160045260246000fd5b02179055506040518061016001604052803373ffffffffffffffffffffffffffffffffffffffff1681526020018d81526020018c81526020018b73ffffffffffffffffffffffffffffffffffffffff1681526020018a73ffffffffffffffffffffffffffffffffffffffff16815260200189815260200188815260200187815260200186815260200185815260200184815250600360008201518160000160006101000a81548173ffffffffffffffffffffffffffffffffffffffff021916908373ffffffffffffffffffffffffffffffffffffffff16021790555060208201518160010190805190602001906103d09291906109a8565b506040820151816002015560608201518160030160006101000a81548173ffffffffffffffffffffffffffffffffffffffff021916908373ffffffffffffffffffffffffffffffffffffffff16021790555060808201518160040160006101000a81548173ffffffffffffffffffffffffffffffffffffffff021916908373ffffffffffffffffffffffffffffffffffffffff16021790555060a0820151816005015560c0820151816006015560e0820151816007015561010082015181600801556101208201518160090190805190602001906104af9291906109f5565b5061014082015181600a015590505060019150509a9950505050505050505050565b600260009054906101000a900460ff1681565b60016020528060005260406000206000915090505481565b600080806001811115610538577f4e487b7100000000000000000000000000000000000000000000000000000000600052602160045260246000fd5b600260019054906101000a900460ff166001811115610580577f4e487b7100000000000000000000000000000000000000000000000000000000600052602160045260246000fd5b1461058a57600080fd5b6001600260016101000a81548160ff021916908360018111156105d6577f4e487b7100000000000000000000000000000000000000000000000000000000600052602160045260246000fd5b021790555050919050565b60003073ffffffffffffffffffffffffffffffffffffffff1660008054906101000a900473ffffffffffffffffffffffffffffffffffffffff1673ffffffffffffffffffffffffffffffffffffffff1663d74171d1846040518263ffffffff1660e01b81526004016106539190610ff8565b60206040518083038186803b15801561066b57600080fd5b505afa15801561067f573d6000803e3d6000fd5b505050506040513d601f19601f820116820180604052508101906106a39190610c30565b73ffffffffffffffffffffffffffffffffffffffff16146106f9576040517f08c379a00000000000000000000000000000000000000000000000000000000081526004016106f090610fd8565b60405180910390fd5b6001600260006101000a81548160ff02191690831515021790555060019050919050565b600080806001811115610759577f4e487b7100000000000000000000000000000000000000000000000000000000600052602160045260246000fd5b600260019054906101000a900460ff1660018111156107a1577f4e487b7100000000000000000000000000000000000000000000000000000000600052602160045260246000fd5b146107ab57600080fd5b6003600a0154341061097c5760008054906101000a900473ffffffffffffffffffffffffffffffffffffffff1673ffffffffffffffffffffffffffffffffffffffff166372385bc760036001016003600201546003800160009054906101000a900473ffffffffffffffffffffffffffffffffffffffff16600360040160009054906101000a900473ffffffffffffffffffffffffffffffffffffffff166003600501546003600601546003600701546003600801546003600901336040518b63ffffffff1660e01b815260040161088c9a99989796959493929190610ef8565b600060405180830381600087803b1580156108a657600080fd5b505af11580156108ba573d6000803e3d6000fd5b50505050600360000160009054906101000a900473ffffffffffffffffffffffffffffffffffffffff1673ffffffffffffffffffffffffffffffffffffffff166108fc349081150290604051600060405180830381858888f19350505050158015610929573d6000803e3d6000fd5b506001600260016101000a81548160ff02191690836001811115610976577f4e487b7100000000000000000000000000000000000000000000000000000000600052602160045260246000fd5b02179055505b600191505090565b60008054906101000a900473ffffffffffffffffffffffffffffffffffffffff1681565b8280548282559060005260206000209081019282156109e4579160200282015b828111156109e35782518255916020019190600101906109c8565b5b5090506109f19190610a7b565b5090565b828054610a0190611199565b90600052602060002090601f016020900481019282610a235760008555610a6a565b82601f10610a3c57805160ff1916838001178555610a6a565b82800160010185558215610a6a579182015b82811115610a69578251825591602001919060010190610a4e565b5b509050610a779190610a98565b5090565b5b80821115610a94576000816000905550600101610a7c565b5090565b5b80821115610ab1576000816000905550600101610a99565b5090565b6000610ac8610ac384611038565b611013565b90508083825260208201905082856020860282011115610ae757600080fd5b60005b85811015610b175781610afd8882610bb3565b845260208401935060208301925050600181019050610aea565b5050509392505050565b6000610b34610b2f84611064565b611013565b905082815260208101848484011115610b4c57600080fd5b610b5784828561118a565b509392505050565b600081359050610b6e816112f4565b92915050565b600081519050610b83816112f4565b92915050565b600082601f830112610b9a57600080fd5b8135610baa848260208601610ab5565b91505092915050565b600081359050610bc28161130b565b92915050565b600082601f830112610bd957600080fd5b8135610be9848260208601610b21565b91505092915050565b600081359050610c0181611322565b92915050565b600060208284031215610c1957600080fd5b6000610c2784828501610b5f565b91505092915050565b600060208284031215610c4257600080fd5b6000610c5084828501610b74565b91505092915050565b6000806000806000806000806000806101408b8d031215610c7957600080fd5b60008b013567ffffffffffffffff811115610c9357600080fd5b610c9f8d828e01610b89565b9a50506020610cb08d828e01610bf2565b9950506040610cc18d828e01610b5f565b9850506060610cd28d828e01610b5f565b9750506080610ce38d828e01610bf2565b96505060a0610cf48d828e01610bf2565b95505060c0610d058d828e01610bf2565b94505060e0610d168d828e01610bf2565b9350506101008b013567ffffffffffffffff811115610d3457600080fd5b610d408d828e01610bc8565b925050610120610d528d828e01610bf2565b9150509295989b9194979a5092959850565b600060208284031215610d7657600080fd5b6000610d8484828501610bf2565b91505092915050565b6000610d998383610e28565b60208301905092915050565b610dae81611114565b82525050565b6000610dbf826110bf565b610dc981856110d7565b9350610dd483611095565b8060005b83811015610e0c57610de982611274565b610df38882610d8d565b9750610dfe836110ca565b925050600181019050610dd8565b5085935050505092915050565b610e2281611126565b82525050565b610e3181611132565b82525050565b60008154610e4481611199565b610e4e81866110e8565b94506001821660008114610e695760018114610e7b57610eae565b60ff1983168652602086019350610eae565b610e84856110aa565b60005b83811015610ea657815481890152600182019150602081019050610e87565b808801955050505b50505092915050565b610ec081611166565b82525050565b6000610ed36030836110f9565b9150610ede826112a5565b604082019050919050565b610ef28161115c565b82525050565b6000610140820190508181036000830152610f13818d610db4565b9050610f22602083018c610ee9565b610f2f604083018b610da5565b610f3c606083018a610da5565b610f496080830189610ee9565b610f5660a0830188610ee9565b610f6360c0830187610ee9565b610f7060e0830186610ee9565b818103610100830152610f838185610e37565b9050610f93610120830184610da5565b9b9a5050505050505050505050565b6000602082019050610fb76000830184610e19565b92915050565b6000602082019050610fd26000830184610eb7565b92915050565b60006020820190508181036000830152610ff181610ec6565b9050919050565b600060208201905061100d6000830184610ee9565b92915050565b600061101d61102e565b905061102982826111e5565b919050565b6000604051905090565b600067ffffffffffffffff82111561105357611052611245565b5b602082029050602081019050919050565b600067ffffffffffffffff82111561107f5761107e611245565b5b61108882611287565b9050602081019050919050565b60008190508160005260206000209050919050565b60008190508160005260206000209050919050565b600081549050919050565b6000600182019050919050565b600082825260208201905092915050565b600082825260208201905092915050565b600082825260208201905092915050565b6000819050919050565b600061111f8261113c565b9050919050565b60008115159050919050565b6000819050919050565b600073ffffffffffffffffffffffffffffffffffffffff82169050919050565b6000819050919050565b600061117182611178565b9050919050565b60006111838261113c565b9050919050565b82818337600083830152505050565b600060028204905060018216806111b157607f821691505b602082108114156111c5576111c4611216565b5b50919050565b60006111de6111d983611298565b61110a565b9050919050565b6111ee82611287565b810181811067ffffffffffffffff8211171561120d5761120c611245565b5b80604052505050565b7f4e487b7100000000000000000000000000000000000000000000000000000000600052602260045260246000fd5b7f4e487b7100000000000000000000000000000000000000000000000000000000600052604160045260246000fd5b600061128082546111cb565b9050919050565b6000601f19601f8301169050919050565b60008160001c9050919050565b7f4578697420686173206e6f74206265656e207472616e7366657272656420746f60008201527f20746865204d61726b6574207965742100000000000000000000000000000000602082015250565b6112fd81611114565b811461130857600080fd5b50565b61131481611132565b811461131f57600080fd5b50565b61132b8161115c565b811461133657600080fd5b5056fea26469706673582212206680adc5ce8026fee6a03223655c9314103e31d14abb8ac486265197ef0d4cdc64736f6c63430008040033",
  "linkReferences": {},
  "deployedLinkReferences": {}
}