{
  "_format": "hh-sol-artifact-1",
  "contractName": "Market",
  "sourceName": "contracts/Market.sol",
  "abi": [
    {
      "inputs": [
        {
          "internalType": "address",
          "name": "_outbox",
          "type": "address"
        }
      ],
      "stateMutability": "nonpayable",
      "type": "constructor"
    },
    {
      "inputs": [
        {
          "internalType": "uint256",
          "name": "_exitId",
          "type": "uint256"
        }
      ],
      "name": "claimExit",
      "outputs": [
        {
          "internalType": "bool",
          "name": "",
          "type": "bool"
        }
      ],
      "stateMutability": "nonpayable",
      "type": "function"
    },
    {
      "inputs": [
        {
          "internalType": "uint256",
          "name": "_0utputId",
          "type": "uint256"
        }
      ],
      "name": "closeMarket",
      "outputs": [
        {
          "internalType": "bool",
          "name": "",
          "type": "bool"
        }
      ],
      "stateMutability": "nonpayable",
      "type": "function"
    },
    {
      "inputs": [],
      "name": "exitLocked",
      "outputs": [
        {
          "internalType": "bool",
          "name": "",
          "type": "bool"
        }
      ],
      "stateMutability": "view",
      "type": "function"
    },
    {
      "inputs": [
        {
          "internalType": "uint256",
          "name": "_exitId",
          "type": "uint256"
        }
      ],
      "name": "lockExit",
      "outputs": [
        {
          "internalType": "bool",
          "name": "",
          "type": "bool"
        }
      ],
      "stateMutability": "nonpayable",
      "type": "function"
    },
    {
      "inputs": [
        {
          "internalType": "bytes32[]",
          "name": "_proof",
          "type": "bytes32[]"
        },
        {
          "internalType": "uint256",
          "name": "_index",
          "type": "uint256"
        },
        {
          "internalType": "address",
          "name": "_l2Sender",
          "type": "address"
        },
        {
          "internalType": "address",
          "name": "_to",
          "type": "address"
        },
        {
          "internalType": "uint256",
          "name": "_l2Block",
          "type": "uint256"
        },
        {
          "internalType": "uint256",
          "name": "_l1Block",
          "type": "uint256"
        },
        {
          "internalType": "uint256",
          "name": "_l2Timestamp",
          "type": "uint256"
        },
        {
          "internalType": "uint256",
          "name": "_value",
          "type": "uint256"
        },
        {
          "internalType": "bytes",
          "name": "_data",
          "type": "bytes"
        },
        {
          "internalType": "uint256",
          "name": "_askPrice",
          "type": "uint256"
        }
      ],
      "name": "openMarket",
      "outputs": [
        {
          "internalType": "bool",
          "name": "",
          "type": "bool"
        }
      ],
      "stateMutability": "nonpayable",
      "type": "function"
    },
    {
      "inputs": [],
      "name": "outbox",
      "outputs": [
        {
          "internalType": "contract IOutbox",
          "name": "",
          "type": "address"
        }
      ],
      "stateMutability": "view",
      "type": "function"
    },
    {
      "inputs": [],
      "name": "submitBid",
      "outputs": [
        {
          "internalType": "bool",
          "name": "",
          "type": "bool"
        }
      ],
      "stateMutability": "payable",
      "type": "function"
    },
    {
      "inputs": [
        {
          "internalType": "address",
          "name": "",
          "type": "address"
        }
      ],
      "name": "totalEtherBalance",
      "outputs": [
        {
          "internalType": "uint256",
          "name": "",
          "type": "uint256"
        }
      ],
      "stateMutability": "view",
      "type": "function"
    }
  ],
  "bytecode": "0x60806040523480156200001157600080fd5b50604051620017fd380380620017fd8339818101604052810190620000379190620000e7565b806000806101000a81548173ffffffffffffffffffffffffffffffffffffffff021916908373ffffffffffffffffffffffffffffffffffffffff1602179055506001600260016101000a81548160ff02191690836001811115620000c4577f4e487b7100000000000000000000000000000000000000000000000000000000600052602160045260246000fd5b02179055505062000161565b600081519050620000e18162000147565b92915050565b600060208284031215620000fa57600080fd5b60006200010a84828501620000d0565b91505092915050565b6000620001208262000127565b9050919050565b600073ffffffffffffffffffffffffffffffffffffffff82169050919050565b620001528162000113565b81146200015e57600080fd5b50565b61168c80620001716000396000f3fe60806040526004361061007b5760003560e01c8063ae4180951161004e578063ae41809514610162578063c19dcd7b1461019f578063c334b6b2146101dc578063ce11e6ab146101fa5761007b565b8063328bd18b1461008057806357860529146100bd57806379066a92146100fa5780639621dc1614610125575b600080fd5b34801561008c57600080fd5b506100a760048036038101906100a29190610fef565b610225565b6040516100b49190611250565b60405180910390f35b3480156100c957600080fd5b506100e460048036038101906100df9190610ee4565b610468565b6040516100f19190611250565b60405180910390f35b34801561010657600080fd5b5061010f61075c565b60405161011c9190611250565b60405180910390f35b34801561013157600080fd5b5061014c60048036038101906101479190610e92565b61076f565b60405161015991906112c6565b60405180910390f35b34801561016e57600080fd5b5061018960048036038101906101849190610fef565b610787565b6040516101969190611250565b60405180910390f35b3480156101ab57600080fd5b506101c660048036038101906101c19190610fef565b61086c565b6040516101d39190611250565b60405180910390f35b6101e46109a8565b6040516101f19190611250565b60405180910390f35b34801561020657600080fd5b5061020f610c0f565b60405161021c919061126b565b60405180910390f35b60003373ffffffffffffffffffffffffffffffffffffffff1660008054906101000a900473ffffffffffffffffffffffffffffffffffffffff1673ffffffffffffffffffffffffffffffffffffffff1663d74171d1846040518263ffffffff1660e01b815260040161029791906112c6565b60206040518083038186803b1580156102af57600080fd5b505afa1580156102c3573d6000803e3d6000fd5b505050506040513d601f19601f820116820180604052508101906102e79190610ebb565b73ffffffffffffffffffffffffffffffffffffffff161461033d576040517f08c379a0000000000000000000000000000000000000000000000000000000008152600401610334906112a6565b60405180910390fd5b6000600260006101000a81548160ff02191690831515021790555060008054906101000a900473ffffffffffffffffffffffffffffffffffffffff1673ffffffffffffffffffffffffffffffffffffffff166372385bc760036001016003600201546003800160009054906101000a900473ffffffffffffffffffffffffffffffffffffffff16600360040160009054906101000a900473ffffffffffffffffffffffffffffffffffffffff166003600501546003600601546003600701546003600801546003600901336040518b63ffffffff1660e01b815260040161042d9a999897969594939291906111a6565b600060405180830381600087803b15801561044757600080fd5b505af115801561045b573d6000803e3d6000fd5b5050505060019050919050565b600060018060018111156104a5577f4e487b7100000000000000000000000000000000000000000000000000000000600052602160045260246000fd5b600260019054906101000a900460ff1660018111156104ed577f4e487b7100000000000000000000000000000000000000000000000000000000600052602160045260246000fd5b146104f757600080fd5b60011515600260009054906101000a900460ff1615151461051757600080fd5b6000600260016101000a81548160ff02191690836001811115610563577f4e487b7100000000000000000000000000000000000000000000000000000000600052602160045260246000fd5b02179055506040518061016001604052803373ffffffffffffffffffffffffffffffffffffffff1681526020018d81526020018c81526020018b73ffffffffffffffffffffffffffffffffffffffff1681526020018a73ffffffffffffffffffffffffffffffffffffffff16815260200189815260200188815260200187815260200186815260200185815260200184815250600360008201518160000160006101000a81548173ffffffffffffffffffffffffffffffffffffffff021916908373ffffffffffffffffffffffffffffffffffffffff160217905550602082015181600101908051906020019061065b929190610c33565b506040820151816002015560608201518160030160006101000a81548173ffffffffffffffffffffffffffffffffffffffff021916908373ffffffffffffffffffffffffffffffffffffffff16021790555060808201518160040160006101000a81548173ffffffffffffffffffffffffffffffffffffffff021916908373ffffffffffffffffffffffffffffffffffffffff16021790555060a0820151816005015560c0820151816006015560e08201518160070155610100820151816008015561012082015181600901908051906020019061073a929190610c80565b5061014082015181600a015590505060019150509a9950505050505050505050565b600260009054906101000a900460ff1681565b60016020528060005260406000206000915090505481565b6000808060018111156107c3577f4e487b7100000000000000000000000000000000000000000000000000000000600052602160045260246000fd5b600260019054906101000a900460ff16600181111561080b577f4e487b7100000000000000000000000000000000000000000000000000000000600052602160045260246000fd5b1461081557600080fd5b6001600260016101000a81548160ff02191690836001811115610861577f4e487b7100000000000000000000000000000000000000000000000000000000600052602160045260246000fd5b021790555050919050565b60003073ffffffffffffffffffffffffffffffffffffffff1660008054906101000a900473ffffffffffffffffffffffffffffffffffffffff1673ffffffffffffffffffffffffffffffffffffffff1663d74171d1846040518263ffffffff1660e01b81526004016108de91906112c6565b60206040518083038186803b1580156108f657600080fd5b505afa15801561090a573d6000803e3d6000fd5b505050506040513d601f19601f8201168201806040525081019061092e9190610ebb565b73ffffffffffffffffffffffffffffffffffffffff1614610984576040517f08c379a000000000000000000000000000000000000000000000000000000000815260040161097b90611286565b60405180910390fd5b6001600260006101000a81548160ff02191690831515021790555060019050919050565b6000808060018111156109e4577f4e487b7100000000000000000000000000000000000000000000000000000000600052602160045260246000fd5b600260019054906101000a900460ff166001811115610a2c577f4e487b7100000000000000000000000000000000000000000000000000000000600052602160045260246000fd5b14610a3657600080fd5b6003600a01543410610c075760008054906101000a900473ffffffffffffffffffffffffffffffffffffffff1673ffffffffffffffffffffffffffffffffffffffff166372385bc760036001016003600201546003800160009054906101000a900473ffffffffffffffffffffffffffffffffffffffff16600360040160009054906101000a900473ffffffffffffffffffffffffffffffffffffffff166003600501546003600601546003600701546003600801546003600901336040518b63ffffffff1660e01b8152600401610b179a999897969594939291906111a6565b600060405180830381600087803b158015610b3157600080fd5b505af1158015610b45573d6000803e3d6000fd5b50505050600360000160009054906101000a900473ffffffffffffffffffffffffffffffffffffffff1673ffffffffffffffffffffffffffffffffffffffff166108fc349081150290604051600060405180830381858888f19350505050158015610bb4573d6000803e3d6000fd5b506001600260016101000a81548160ff02191690836001811115610c01577f4e487b7100000000000000000000000000000000000000000000000000000000600052602160045260246000fd5b02179055505b600191505090565b60008054906101000a900473ffffffffffffffffffffffffffffffffffffffff1681565b828054828255906000526020600020908101928215610c6f579160200282015b82811115610c6e578251825591602001919060010190610c53565b5b509050610c7c9190610d06565b5090565b828054610c8c90611467565b90600052602060002090601f016020900481019282610cae5760008555610cf5565b82601f10610cc757805160ff1916838001178555610cf5565b82800160010185558215610cf5579182015b82811115610cf4578251825591602001919060010190610cd9565b5b509050610d029190610d23565b5090565b5b80821115610d1f576000816000905550600101610d07565b5090565b5b80821115610d3c576000816000905550600101610d24565b5090565b6000610d53610d4e84611306565b6112e1565b90508083825260208201905082856020860282011115610d7257600080fd5b60005b85811015610da25781610d888882610e3e565b845260208401935060208301925050600181019050610d75565b5050509392505050565b6000610dbf610dba84611332565b6112e1565b905082815260208101848484011115610dd757600080fd5b610de2848285611458565b509392505050565b600081359050610df981611611565b92915050565b600081519050610e0e81611611565b92915050565b600082601f830112610e2557600080fd5b8135610e35848260208601610d40565b91505092915050565b600081359050610e4d81611628565b92915050565b600082601f830112610e6457600080fd5b8135610e74848260208601610dac565b91505092915050565b600081359050610e8c8161163f565b92915050565b600060208284031215610ea457600080fd5b6000610eb284828501610dea565b91505092915050565b600060208284031215610ecd57600080fd5b6000610edb84828501610dff565b91505092915050565b6000806000806000806000806000806101408b8d031215610f0457600080fd5b60008b013567ffffffffffffffff811115610f1e57600080fd5b610f2a8d828e01610e14565b9a50506020610f3b8d828e01610e7d565b9950506040610f4c8d828e01610dea565b9850506060610f5d8d828e01610dea565b9750506080610f6e8d828e01610e7d565b96505060a0610f7f8d828e01610e7d565b95505060c0610f908d828e01610e7d565b94505060e0610fa18d828e01610e7d565b9350506101008b013567ffffffffffffffff811115610fbf57600080fd5b610fcb8d828e01610e53565b925050610120610fdd8d828e01610e7d565b9150509295989b9194979a5092959850565b60006020828403121561100157600080fd5b600061100f84828501610e7d565b91505092915050565b600061102483836110b3565b60208301905092915050565b611039816113e2565b82525050565b600061104a8261138d565b61105481856113a5565b935061105f83611363565b8060005b838110156110975761107482611542565b61107e8882611018565b975061108983611398565b925050600181019050611063565b5085935050505092915050565b6110ad816113f4565b82525050565b6110bc81611400565b82525050565b600081546110cf81611467565b6110d981866113b6565b945060018216600081146110f4576001811461110657611139565b60ff1983168652602086019350611139565b61110f85611378565b60005b8381101561113157815481890152600182019150602081019050611112565b808801955050505b50505092915050565b61114b81611434565b82525050565b600061115e602a836113c7565b915061116982611573565b604082019050919050565b6000611181602a836113c7565b915061118c826115c2565b604082019050919050565b6111a08161142a565b82525050565b60006101408201905081810360008301526111c1818d61103f565b90506111d0602083018c611197565b6111dd604083018b611030565b6111ea606083018a611030565b6111f76080830189611197565b61120460a0830188611197565b61121160c0830187611197565b61121e60e0830186611197565b81810361010083015261123181856110c2565b9050611241610120830184611030565b9b9a5050505050505050505050565b600060208201905061126560008301846110a4565b92915050565b60006020820190506112806000830184611142565b92915050565b6000602082019050818103600083015261129f81611151565b9050919050565b600060208201905081810360008301526112bf81611174565b9050919050565b60006020820190506112db6000830184611197565b92915050565b60006112eb6112fc565b90506112f782826114b3565b919050565b6000604051905090565b600067ffffffffffffffff82111561132157611320611513565b5b602082029050602081019050919050565b600067ffffffffffffffff82111561134d5761134c611513565b5b61135682611555565b9050602081019050919050565b60008190508160005260206000209050919050565b60008190508160005260206000209050919050565b600081549050919050565b6000600182019050919050565b600082825260208201905092915050565b600082825260208201905092915050565b600082825260208201905092915050565b6000819050919050565b60006113ed8261140a565b9050919050565b60008115159050919050565b6000819050919050565b600073ffffffffffffffffffffffffffffffffffffffff82169050919050565b6000819050919050565b600061143f82611446565b9050919050565b60006114518261140a565b9050919050565b82818337600083830152505050565b6000600282049050600182168061147f57607f821691505b60208210811415611493576114926114e4565b5b50919050565b60006114ac6114a783611566565b6113d8565b9050919050565b6114bc82611555565b810181811067ffffffffffffffff821117156114db576114da611513565b5b80604052505050565b7f4e487b7100000000000000000000000000000000000000000000000000000000600052602260045260246000fd5b7f4e487b7100000000000000000000000000000000000000000000000000000000600052604160045260246000fd5b600061154e8254611499565b9050919050565b6000601f19601f8301169050919050565b60008160001c9050919050565b7f45786974206973206e6f74207472616e7366657272656420746f20746865204d60008201527f61726b6574207965742100000000000000000000000000000000000000000000602082015250565b7f596f75277265206e6f74207468652063757272656e74206f776e6572206f662060008201527f7468697320657869742100000000000000000000000000000000000000000000602082015250565b61161a816113e2565b811461162557600080fd5b50565b61163181611400565b811461163c57600080fd5b50565b6116488161142a565b811461165357600080fd5b5056fea26469706673582212202bb77fc04eaf6189921d0a5aec43ddcc37c78817066f47d4ab12175486d1d62a64736f6c63430008040033",
  "linkReferences": {},
  "deployedLinkReferences": {}
}